{
  "contractName": "test",
  "abi": [
    {
      "constant": true,
      "inputs": [
        {
          "name": "",
          "type": "bytes32"
        },
        {
          "name": "",
          "type": "uint256"
        }
      ],
      "name": "rentals",
      "outputs": [
        {
          "name": "landlord",
          "type": "address"
        },
        {
          "name": "tenant",
          "type": "address"
        },
        {
          "name": "depositeAmount",
          "type": "uint256"
        },
        {
          "name": "rentalPrice",
          "type": "uint256"
        },
        {
          "name": "endtime",
          "type": "uint256"
        },
        {
          "name": "itemId",
          "type": "uint256"
        }
      ],
      "payable": false,
      "stateMutability": "view",
      "type": "function"
    },
    {
      "constant": false,
      "inputs": [
        {
          "name": "key",
          "type": "bytes32"
        },
        {
          "name": "landlord",
          "type": "address"
        },
        {
          "name": "depositeAmount",
          "type": "uint256"
        },
        {
          "name": "rentalPrice",
          "type": "uint256"
        },
        {
          "name": "endtime",
          "type": "uint256"
        },
        {
          "name": "itemId",
          "type": "uint256"
        }
      ],
      "name": "StoreRental",
      "outputs": [
        {
          "name": "success",
          "type": "bool"
        }
      ],
      "payable": false,
      "stateMutability": "nonpayable",
      "type": "function"
    }
  ],
  "bytecode": "0x608060405234801561001057600080fd5b50610447806100206000396000f30060806040526004361061004c576000357c0100000000000000000000000000000000000000000000000000000000900463ffffffff1680630a8d65b614610051578063152aa7ca1461011b575b600080fd5b34801561005d57600080fd5b5061008a6004803603810190808035600019169060200190929190803590602001909291905050506101ac565b604051808773ffffffffffffffffffffffffffffffffffffffff1673ffffffffffffffffffffffffffffffffffffffff1681526020018673ffffffffffffffffffffffffffffffffffffffff1673ffffffffffffffffffffffffffffffffffffffff168152602001858152602001848152602001838152602001828152602001965050505050505060405180910390f35b34801561012757600080fd5b506101926004803603810190808035600019169060200190929190803573ffffffffffffffffffffffffffffffffffffffff16906020019092919080359060200190929190803590602001909291908035906020019092919080359060200190929190505050610244565b604051808215151515815260200191505060405180910390f35b6000602052816000526040600020818154811015156101c757fe5b9060005260206000209060060201600091509150508060000160009054906101000a900473ffffffffffffffffffffffffffffffffffffffff16908060010160009054906101000a900473ffffffffffffffffffffffffffffffffffffffff16908060020154908060030154908060040154908060050154905086565b600061024e6103b8565b60c0604051908101604052808873ffffffffffffffffffffffffffffffffffffffff1681526020013373ffffffffffffffffffffffffffffffffffffffff1681526020018781526020018681526020018581526020018481525090506000808960001916600019168152602001908152602001600020819080600181540180825580915050906001820390600052602060002090600602016000909192909190915060008201518160000160006101000a81548173ffffffffffffffffffffffffffffffffffffffff021916908373ffffffffffffffffffffffffffffffffffffffff16021790555060208201518160010160006101000a81548173ffffffffffffffffffffffffffffffffffffffff021916908373ffffffffffffffffffffffffffffffffffffffff16021790555060408201518160020155606082015181600301556080820151816004015560a0820151816005015550505060019150509695505050505050565b60c060405190810160405280600073ffffffffffffffffffffffffffffffffffffffff168152602001600073ffffffffffffffffffffffffffffffffffffffff1681526020016000815260200160008152602001600081526020016000815250905600a165627a7a72305820dfeb2f0f92f01e63c77c245a21f721864d33077e40ee06fcfdccb6c2c38b0e5c0029",
  "source": "contract test {\r\n\r\n    mapping (bytes32=>Rental[]) public rentals;\r\n\r\n    struct Rental{\r\n        address landlord;\r\n        address tenant;\r\n        uint depositeAmount;\r\n        uint rentalPrice;\r\n        ///mapping(address => uint256) depositeAmount;\r\n        ///mapping(address => uint256) rentalPrice;\r\n        uint endtime;\r\n        uint itemId;\r\n    }\r\n\r\n    function StoreRental(bytes32 key, address landlord, uint depositeAmount, uint rentalPrice, uint endtime, uint itemId) returns (bool success) {\r\n       Rental memory rent = Rental(landlord, msg.sender, depositeAmount, rentalPrice, endtime, itemId);      \r\n       rentals[key].push(rent);\r\n       ///AddRentalCost(depositeAmount, rentalPrice);\r\n       return true;\r\n    }\r\n\r\n    ///function AddRentalCost(uint id, uint testDepositeAmount, uint testRentalPrice) public payable{\r\n       ///rentals[id].depositeAmount[msg.sender] += testDepositeAmount;\r\n       ///rentals[id].rentalPrice[msg.sender] += testRentalPrice;\r\n    ///}\r\n}",
  "sourcePath": "D:\\repo\\toollending\\Backend\\Etherium\\contracts\\test.sol",
  "compiler": {
    "name": "solc",
    "version": "0.4.24+commit.e67f0147.Emscripten.clang"
  },
  "schemaVersion": "2.0.1",
  "updatedAt": "2018-12-17T19:19:16.227Z"
}